{
  "contractName": "PropertyData",
  "abi": [
    {
      "inputs": [],
      "name": "count",
      "outputs": [
        {
          "internalType": "uint256",
          "name": "",
          "type": "uint256"
        }
      ],
      "stateMutability": "view",
      "type": "function",
      "constant": true
    },
    {
      "inputs": [],
      "name": "name",
      "outputs": [
        {
          "internalType": "string",
          "name": "",
          "type": "string"
        }
      ],
      "stateMutability": "view",
      "type": "function",
      "constant": true
    },
    {
      "inputs": [
        {
          "internalType": "uint256",
          "name": "",
          "type": "uint256"
        }
      ],
      "name": "names",
      "outputs": [
        {
          "internalType": "string",
          "name": "",
          "type": "string"
        }
      ],
      "stateMutability": "view",
      "type": "function",
      "constant": true
    },
    {
      "inputs": [
        {
          "internalType": "uint256",
          "name": "",
          "type": "uint256"
        }
      ],
      "name": "property",
      "outputs": [
        {
          "internalType": "address",
          "name": "_owner",
          "type": "address"
        },
        {
          "internalType": "uint256",
          "name": "_area",
          "type": "uint256"
        },
        {
          "internalType": "uint256",
          "name": "_price",
          "type": "uint256"
        },
        {
          "internalType": "int256",
          "name": "_pin",
          "type": "int256"
        },
        {
          "internalType": "string",
          "name": "_district",
          "type": "string"
        },
        {
          "internalType": "string",
          "name": "_state",
          "type": "string"
        },
        {
          "internalType": "bool",
          "name": "_isVerified",
          "type": "bool"
        }
      ],
      "stateMutability": "view",
      "type": "function",
      "constant": true
    },
    {
      "inputs": [
        {
          "internalType": "string",
          "name": "_name",
          "type": "string"
        }
      ],
      "name": "setName",
      "outputs": [
        {
          "internalType": "bool",
          "name": "",
          "type": "bool"
        }
      ],
      "stateMutability": "nonpayable",
      "type": "function"
    },
    {
      "inputs": [
        {
          "internalType": "address",
          "name": "owner",
          "type": "address"
        },
        {
          "internalType": "uint256",
          "name": "area",
          "type": "uint256"
        },
        {
          "internalType": "uint256",
          "name": "price",
          "type": "uint256"
        },
        {
          "internalType": "int256",
          "name": "pin",
          "type": "int256"
        },
        {
          "internalType": "string",
          "name": "district",
          "type": "string"
        },
        {
          "internalType": "string",
          "name": "_state",
          "type": "string"
        }
      ],
      "name": "addProperty",
      "outputs": [],
      "stateMutability": "nonpayable",
      "type": "function"
    },
    {
      "inputs": [
        {
          "internalType": "uint256",
          "name": "propertyId",
          "type": "uint256"
        }
      ],
      "name": "verifyProperty",
      "outputs": [],
      "stateMutability": "nonpayable",
      "type": "function"
    },
    {
      "inputs": [
        {
          "internalType": "uint256",
          "name": "propertyId",
          "type": "uint256"
        },
        {
          "internalType": "address",
          "name": "owner",
          "type": "address"
        }
      ],
      "name": "transferOwnership",
      "outputs": [],
      "stateMutability": "nonpayable",
      "type": "function"
    }
  ],
  "bytecode": "0x60806040526000600255600060045534801561001a57600080fd5b50610d758061002a6000396000f3fe608060405234801561001057600080fd5b50600436106100885760003560e01c806330e1ad321161005b57806330e1ad32146101015780634212a8ae146101375780634622ab0314610153578063c47f00271461018357610088565b806306661abd1461008d57806306fdde03146100ab57806329507f73146100c95780632f11be6f146100e5575b600080fd5b6100956101b3565b6040516100a2919061073d565b60405180910390f35b6100b36101b9565b6040516100c091906107f1565b60405180910390f35b6100e360048036038101906100de91906108b1565b610247565b005b6100ff60048036038101906100fa9190610a5c565b6102a0565b005b61011b60048036038101906101169190610b21565b6103e3565b60405161012e9796959493929190610b87565b60405180910390f35b610151600480360381019061014c9190610b21565b610562565b005b61016d60048036038101906101689190610b21565b610594565b60405161017a91906107f1565b60405180910390f35b61019d60048036038101906101989190610c04565b610634565b6040516101aa9190610c4d565b60405180910390f35b60045481565b600080546101c690610c97565b80601f01602080910402602001604051908101604052809291908181526020018280546101f290610c97565b801561023f5780601f106102145761010080835404028352916020019161023f565b820191906000526020600020905b81548152906001019060200180831161022257829003601f168201915b505050505081565b806003600084815260200190815260200160002060000160006101000a81548173ffffffffffffffffffffffffffffffffffffffff021916908373ffffffffffffffffffffffffffffffffffffffff1602179055505050565b600460008154809291906102b390610cf7565b91905055506040518060e001604052808773ffffffffffffffffffffffffffffffffffffffff1681526020018681526020018581526020018481526020018381526020018281526020016000151581525060036000600454815260200190815260200160002060008201518160000160006101000a81548173ffffffffffffffffffffffffffffffffffffffff021916908373ffffffffffffffffffffffffffffffffffffffff160217905550602082015181600101556040820151816002015560608201518160030155608082015181600401908051906020019061039a929190610681565b5060a08201518160050190805190602001906103b7929190610681565b5060c08201518160060160006101000a81548160ff021916908315150217905550905050505050505050565b60036020528060005260406000206000915090508060000160009054906101000a900473ffffffffffffffffffffffffffffffffffffffff169080600101549080600201549080600301549080600401805461043e90610c97565b80601f016020809104026020016040519081016040528092919081815260200182805461046a90610c97565b80156104b75780601f1061048c576101008083540402835291602001916104b7565b820191906000526020600020905b81548152906001019060200180831161049a57829003601f168201915b5050505050908060050180546104cc90610c97565b80601f01602080910402602001604051908101604052809291908181526020018280546104f890610c97565b80156105455780601f1061051a57610100808354040283529160200191610545565b820191906000526020600020905b81548152906001019060200180831161052857829003601f168201915b5050505050908060060160009054906101000a900460ff16905087565b60016003600083815260200190815260200160002060060160006101000a81548160ff02191690831515021790555050565b600160205280600052604060002060009150905080546105b390610c97565b80601f01602080910402602001604051908101604052809291908181526020018280546105df90610c97565b801561062c5780601f106106015761010080835404028352916020019161062c565b820191906000526020600020905b81548152906001019060200180831161060f57829003601f168201915b505050505081565b60006002600081548092919061064990610cf7565b9190505550816001600060025481526020019081526020016000209080519060200190610677929190610681565b5060019050919050565b82805461068d90610c97565b90600052602060002090601f0160209004810192826106af57600085556106f6565b82601f106106c857805160ff19168380011785556106f6565b828001600101855582156106f6579182015b828111156106f55782518255916020019190600101906106da565b5b5090506107039190610707565b5090565b5b80821115610720576000816000905550600101610708565b5090565b6000819050919050565b61073781610724565b82525050565b6000602082019050610752600083018461072e565b92915050565b600081519050919050565b600082825260208201905092915050565b60005b83811015610792578082015181840152602081019050610777565b838111156107a1576000848401525b50505050565b6000601f19601f8301169050919050565b60006107c382610758565b6107cd8185610763565b93506107dd818560208601610774565b6107e6816107a7565b840191505092915050565b6000602082019050818103600083015261080b81846107b8565b905092915050565b6000604051905090565b600080fd5b600080fd5b61083081610724565b811461083b57600080fd5b50565b60008135905061084d81610827565b92915050565b600073ffffffffffffffffffffffffffffffffffffffff82169050919050565b600061087e82610853565b9050919050565b61088e81610873565b811461089957600080fd5b50565b6000813590506108ab81610885565b92915050565b600080604083850312156108c8576108c761081d565b5b60006108d68582860161083e565b92505060206108e78582860161089c565b9150509250929050565b6000819050919050565b610904816108f1565b811461090f57600080fd5b50565b600081359050610921816108fb565b92915050565b600080fd5b600080fd5b7f4e487b7100000000000000000000000000000000000000000000000000000000600052604160045260246000fd5b610969826107a7565b810181811067ffffffffffffffff8211171561098857610987610931565b5b80604052505050565b600061099b610813565b90506109a78282610960565b919050565b600067ffffffffffffffff8211156109c7576109c6610931565b5b6109d0826107a7565b9050602081019050919050565b82818337600083830152505050565b60006109ff6109fa846109ac565b610991565b905082815260208101848484011115610a1b57610a1a61092c565b5b610a268482856109dd565b509392505050565b600082601f830112610a4357610a42610927565b5b8135610a538482602086016109ec565b91505092915050565b60008060008060008060c08789031215610a7957610a7861081d565b5b6000610a8789828a0161089c565b9650506020610a9889828a0161083e565b9550506040610aa989828a0161083e565b9450506060610aba89828a01610912565b935050608087013567ffffffffffffffff811115610adb57610ada610822565b5b610ae789828a01610a2e565b92505060a087013567ffffffffffffffff811115610b0857610b07610822565b5b610b1489828a01610a2e565b9150509295509295509295565b600060208284031215610b3757610b3661081d565b5b6000610b458482850161083e565b91505092915050565b610b5781610873565b82525050565b610b66816108f1565b82525050565b60008115159050919050565b610b8181610b6c565b82525050565b600060e082019050610b9c600083018a610b4e565b610ba9602083018961072e565b610bb6604083018861072e565b610bc36060830187610b5d565b8181036080830152610bd581866107b8565b905081810360a0830152610be981856107b8565b9050610bf860c0830184610b78565b98975050505050505050565b600060208284031215610c1a57610c1961081d565b5b600082013567ffffffffffffffff811115610c3857610c37610822565b5b610c4484828501610a2e565b91505092915050565b6000602082019050610c626000830184610b78565b92915050565b7f4e487b7100000000000000000000000000000000000000000000000000000000600052602260045260246000fd5b60006002820490506001821680610caf57607f821691505b602082108103610cc257610cc1610c68565b5b50919050565b7f4e487b7100000000000000000000000000000000000000000000000000000000600052601160045260246000fd5b6000610d0282610724565b91507fffffffffffffffffffffffffffffffffffffffffffffffffffffffffffffffff8203610d3457610d33610cc8565b5b60018201905091905056fea264697066735822122060255b2f425c583b7c8e1df63bfc0d1ad2c60a8bb883a7881a653fa222c0087e64736f6c634300080d0033",
  "immutableReferences": {},
  "source": "// SPDX-License-Identifier: GPL-3.0\r\npragma solidity ^0.8.11;\r\n\r\n\r\ncontract PurchaseAgreement {\r\n    uint256 public value;\r\n    uint256 public propertyId;\r\n    address payable public buyer;\r\n    address payable public seller;\r\n\r\n    address public propertyContract;\r\n\r\n    enum State {Created, Locked, Release, Inactive}\r\n    State public state;\r\n\r\n\r\n    constructor(address contractAddress) payable {\r\n        seller = payable(msg.sender);\r\n        value = msg.value;\r\n        propertyContract = contractAddress;\r\n    }\r\n\r\n    error InvalidState();\r\n\r\n    error OnlyBuyer();\r\n\r\n    error OnlySeller();\r\n\r\n    modifier inState(State state_)\r\n    {\r\n        if(state != state_)\r\n        {\r\n            revert InvalidState();\r\n        }\r\n        else{\r\n            _;\r\n        }\r\n    }\r\n\r\n    modifier onlyBuyer\r\n    {\r\n        if(msg.sender != buyer)\r\n        {\r\n            revert OnlyBuyer();\r\n        }\r\n        else{\r\n            _;\r\n        }\r\n    }\r\n\r\n    modifier onlySeller\r\n    {\r\n        if(msg.sender != seller)\r\n        {\r\n            revert OnlySeller();\r\n        }\r\n        else{\r\n            _;\r\n        }\r\n    }\r\n\r\n    function setProperty(uint _value, uint256 _propertyId) public\r\n    {\r\n        value = _value;\r\n        propertyId = _propertyId;\r\n    }\r\n\r\n    function confirmPurchase() external inState(State.Created) payable {\r\n        require(msg.value == value, \"Insufficient Funds Sent!\");\r\n        buyer = payable(msg.sender);\r\n        state = State.Locked;\r\n    }\r\n\r\n    function confirmRelease() external inState(State.Locked) {\r\n        state = State.Release;\r\n    }\r\n\r\n    function paySeller()  external inState(State.Locked) onlySeller payable {\r\n        state = State.Inactive;\r\n        PropertyData callee = PropertyData(propertyContract);\r\n        callee.transferOwnership(propertyId, buyer);\r\n        seller.transfer(value);\r\n    }\r\n}\r\n\r\ncontract PropertyData {\r\n        struct Property {\r\n            address _owner;\r\n            uint256 _area;\r\n            uint256 _price;\r\n            int _pin;\r\n            string _district;\r\n            string _state;\r\n            bool _isVerified;\r\n        }\r\n\r\n        string public name;\r\n\r\n        mapping (uint => string) public names;\r\n        uint c =  0;\r\n\r\n        function setName(string memory _name) public returns(bool) {\r\n            c++;\r\n            names[c] = _name;\r\n            return true;\r\n        }\r\n\r\n        mapping (uint => Property) public property;\r\n        uint256 public count = 0;\r\n\r\n        function addProperty(address owner, uint256 area, uint256 price, int pin, string memory district, string memory _state) public\r\n        {\r\n            count++;\r\n            property[count] = Property(owner, area, price, pin, district, _state, false);\r\n        }\r\n\r\n        function verifyProperty(uint256 propertyId) public\r\n        {\r\n            property[propertyId]._isVerified = true;\r\n        }\r\n\r\n        function transferOwnership(uint256 propertyId, address owner) public\r\n        {\r\n            property[propertyId]._owner = owner;\r\n        }\r\n}",
  "sourcePath": "D:\\Projects\\PRS_Blockchain\\contracts\\PurchaseAgreement.sol",
  "compiler": {
    "name": "solc",
    "version": "0.8.13+commit.abaa5c0e.Emscripten.clang"
  },
  "schemaVersion": "3.4.7",
  "updatedAt": "2022-05-07T05:43:12.181Z",
  "networkType": "ethereum",
  "devdoc": {
    "kind": "dev",
    "methods": {},
    "version": 1
  },
  "userdoc": {
    "kind": "user",
    "methods": {},
    "version": 1
  }
}