{
  "contractName": "PurchaseAgreement",
  "abi": [
    {
      "inputs": [
        {
          "internalType": "address",
          "name": "contractAddress",
          "type": "address"
        }
      ],
      "stateMutability": "payable",
      "type": "constructor",
      "payable": true
    },
    {
      "inputs": [],
      "name": "InvalidState",
      "type": "error"
    },
    {
      "inputs": [],
      "name": "OnlyBuyer",
      "type": "error"
    },
    {
      "inputs": [],
      "name": "OnlySeller",
      "type": "error"
    },
    {
      "inputs": [],
      "name": "buyer",
      "outputs": [
        {
          "internalType": "address payable",
          "name": "",
          "type": "address"
        }
      ],
      "stateMutability": "view",
      "type": "function",
      "constant": true
    },
    {
      "inputs": [],
      "name": "propertyContract",
      "outputs": [
        {
          "internalType": "address",
          "name": "",
          "type": "address"
        }
      ],
      "stateMutability": "view",
      "type": "function",
      "constant": true
    },
    {
      "inputs": [],
      "name": "propertyId",
      "outputs": [
        {
          "internalType": "uint256",
          "name": "",
          "type": "uint256"
        }
      ],
      "stateMutability": "view",
      "type": "function",
      "constant": true
    },
    {
      "inputs": [],
      "name": "seller",
      "outputs": [
        {
          "internalType": "address payable",
          "name": "",
          "type": "address"
        }
      ],
      "stateMutability": "view",
      "type": "function",
      "constant": true
    },
    {
      "inputs": [],
      "name": "state",
      "outputs": [
        {
          "internalType": "enum PurchaseAgreement.State",
          "name": "",
          "type": "uint8"
        }
      ],
      "stateMutability": "view",
      "type": "function",
      "constant": true
    },
    {
      "inputs": [],
      "name": "value",
      "outputs": [
        {
          "internalType": "uint256",
          "name": "",
          "type": "uint256"
        }
      ],
      "stateMutability": "view",
      "type": "function",
      "constant": true
    },
    {
      "inputs": [
        {
          "internalType": "uint256",
          "name": "_value",
          "type": "uint256"
        },
        {
          "internalType": "uint256",
          "name": "_propertyId",
          "type": "uint256"
        }
      ],
      "name": "setProperty",
      "outputs": [],
      "stateMutability": "nonpayable",
      "type": "function"
    },
    {
      "inputs": [],
      "name": "confirmPurchase",
      "outputs": [],
      "stateMutability": "payable",
      "type": "function",
      "payable": true
    },
    {
      "inputs": [],
      "name": "confirmRelease",
      "outputs": [],
      "stateMutability": "nonpayable",
      "type": "function"
    },
    {
      "inputs": [],
      "name": "paySeller",
      "outputs": [],
      "stateMutability": "payable",
      "type": "function",
      "payable": true
    }
  ],
  "bytecode": "0x6080604052604051610af0380380610af083398181016040528101906100259190610117565b33600360006101000a81548173ffffffffffffffffffffffffffffffffffffffff021916908373ffffffffffffffffffffffffffffffffffffffff1602179055503460008190555080600460006101000a81548173ffffffffffffffffffffffffffffffffffffffff021916908373ffffffffffffffffffffffffffffffffffffffff16021790555050610144565b600080fd5b600073ffffffffffffffffffffffffffffffffffffffff82169050919050565b60006100e4826100b9565b9050919050565b6100f4816100d9565b81146100ff57600080fd5b50565b600081519050610111816100eb565b92915050565b60006020828403121561012d5761012c6100b4565b5b600061013b84828501610102565b91505092915050565b61099d806101536000396000f3fe6080604052600436106100915760003560e01c8063b3cf6c0111610059578063b3cf6c011461014c578063c19d93fb14610175578063cc1eaac7146101a0578063d6960697146101b7578063ee7a3b8e146101c157610091565b806308551a53146100965780633fa4f245146100c15780637150d8ae146100ec5780638fca967314610117578063a0c97bce14610142575b600080fd5b3480156100a257600080fd5b506100ab6101ec565b6040516100b891906106d4565b60405180910390f35b3480156100cd57600080fd5b506100d6610212565b6040516100e39190610708565b60405180910390f35b3480156100f857600080fd5b50610101610218565b60405161010e91906106d4565b60405180910390f35b34801561012357600080fd5b5061012c61023e565b6040516101399190610744565b60405180910390f35b61014a610264565b005b34801561015857600080fd5b50610173600480360381019061016e9190610790565b6104ab565b005b34801561018157600080fd5b5061018a6104bd565b6040516101979190610847565b60405180910390f35b3480156101ac57600080fd5b506101b56104d0565b005b6101bf61056c565b005b3480156101cd57600080fd5b506101d661068d565b6040516101e39190610708565b60405180910390f35b600360009054906101000a900473ffffffffffffffffffffffffffffffffffffffff1681565b60005481565b600260009054906101000a900473ffffffffffffffffffffffffffffffffffffffff1681565b600460009054906101000a900473ffffffffffffffffffffffffffffffffffffffff1681565b6001806003811115610279576102786107d0565b5b600460149054906101000a900460ff16600381111561029b5761029a6107d0565b5b146102d2576040517fbaf3f0f700000000000000000000000000000000000000000000000000000000815260040160405180910390fd5b600360009054906101000a900473ffffffffffffffffffffffffffffffffffffffff1673ffffffffffffffffffffffffffffffffffffffff163373ffffffffffffffffffffffffffffffffffffffff1614610359576040517f85d1f72600000000000000000000000000000000000000000000000000000000815260040160405180910390fd5b6003600460146101000a81548160ff0219169083600381111561037f5761037e6107d0565b5b02179055506000600460009054906101000a900473ffffffffffffffffffffffffffffffffffffffff1690508073ffffffffffffffffffffffffffffffffffffffff166329507f73600154600260009054906101000a900473ffffffffffffffffffffffffffffffffffffffff166040518363ffffffff1660e01b815260040161040a9291906108c1565b600060405180830381600087803b15801561042457600080fd5b505af1158015610438573d6000803e3d6000fd5b50505050600360009054906101000a900473ffffffffffffffffffffffffffffffffffffffff1673ffffffffffffffffffffffffffffffffffffffff166108fc6000549081150290604051600060405180830381858888f193505050501580156104a6573d6000803e3d6000fd5b505050565b81600081905550806001819055505050565b600460149054906101000a900460ff1681565b60018060038111156104e5576104e46107d0565b5b600460149054906101000a900460ff166003811115610507576105066107d0565b5b1461053e576040517fbaf3f0f700000000000000000000000000000000000000000000000000000000815260040160405180910390fd5b6002600460146101000a81548160ff02191690836003811115610564576105636107d0565b5b021790555050565b6000806003811115610581576105806107d0565b5b600460149054906101000a900460ff1660038111156105a3576105a26107d0565b5b146105da576040517fbaf3f0f700000000000000000000000000000000000000000000000000000000815260040160405180910390fd5b600054341461061e576040517f08c379a000000000000000000000000000000000000000000000000000000000815260040161061590610947565b60405180910390fd5b33600260006101000a81548173ffffffffffffffffffffffffffffffffffffffff021916908373ffffffffffffffffffffffffffffffffffffffff1602179055506001600460146101000a81548160ff02191690836003811115610685576106846107d0565b5b021790555050565b60015481565b600073ffffffffffffffffffffffffffffffffffffffff82169050919050565b60006106be82610693565b9050919050565b6106ce816106b3565b82525050565b60006020820190506106e960008301846106c5565b92915050565b6000819050919050565b610702816106ef565b82525050565b600060208201905061071d60008301846106f9565b92915050565b600061072e82610693565b9050919050565b61073e81610723565b82525050565b60006020820190506107596000830184610735565b92915050565b600080fd5b61076d816106ef565b811461077857600080fd5b50565b60008135905061078a81610764565b92915050565b600080604083850312156107a7576107a661075f565b5b60006107b58582860161077b565b92505060206107c68582860161077b565b9150509250929050565b7f4e487b7100000000000000000000000000000000000000000000000000000000600052602160045260246000fd5b600481106108105761080f6107d0565b5b50565b6000819050610821826107ff565b919050565b600061083182610813565b9050919050565b61084181610826565b82525050565b600060208201905061085c6000830184610838565b92915050565b6000819050919050565b600061088761088261087d84610693565b610862565b610693565b9050919050565b60006108998261086c565b9050919050565b60006108ab8261088e565b9050919050565b6108bb816108a0565b82525050565b60006040820190506108d660008301856106f9565b6108e360208301846108b2565b9392505050565b600082825260208201905092915050565b7f496e73756666696369656e742046756e64732053656e74210000000000000000600082015250565b60006109316018836108ea565b915061093c826108fb565b602082019050919050565b6000602082019050818103600083015261096081610924565b905091905056fea2646970667358221220ff4adcbdb3731ee47816009d289d4a87488564cca8d61fcfc0d1809da6f921b864736f6c634300080d0033",
  "immutableReferences": {},
  "source": "// SPDX-License-Identifier: GPL-3.0\r\npragma solidity ^0.8.11;\r\n\r\n\r\ncontract PurchaseAgreement {\r\n    uint256 public value;\r\n    uint256 public propertyId;\r\n    address payable public buyer;\r\n    address payable public seller;\r\n\r\n    address public propertyContract;\r\n\r\n    enum State {Created, Locked, Release, Inactive}\r\n    State public state;\r\n\r\n\r\n    constructor(address contractAddress) payable {\r\n        seller = payable(msg.sender);\r\n        value = msg.value;\r\n        propertyContract = contractAddress;\r\n    }\r\n\r\n    error InvalidState();\r\n\r\n    error OnlyBuyer();\r\n\r\n    error OnlySeller();\r\n\r\n    modifier inState(State state_)\r\n    {\r\n        if(state != state_)\r\n        {\r\n            revert InvalidState();\r\n        }\r\n        else{\r\n            _;\r\n        }\r\n    }\r\n\r\n    modifier onlyBuyer\r\n    {\r\n        if(msg.sender != buyer)\r\n        {\r\n            revert OnlyBuyer();\r\n        }\r\n        else{\r\n            _;\r\n        }\r\n    }\r\n\r\n    modifier onlySeller\r\n    {\r\n        if(msg.sender != seller)\r\n        {\r\n            revert OnlySeller();\r\n        }\r\n        else{\r\n            _;\r\n        }\r\n    }\r\n\r\n    function setProperty(uint _value, uint256 _propertyId) public\r\n    {\r\n        value = _value;\r\n        propertyId = _propertyId;\r\n    }\r\n\r\n    function confirmPurchase() external inState(State.Created) payable {\r\n        require(msg.value == value, \"Insufficient Funds Sent!\");\r\n        buyer = payable(msg.sender);\r\n        state = State.Locked;\r\n    }\r\n\r\n    function confirmRelease() external inState(State.Locked) {\r\n        state = State.Release;\r\n    }\r\n\r\n    function paySeller()  external inState(State.Locked) onlySeller payable {\r\n        state = State.Inactive;\r\n        PropertyData callee = PropertyData(propertyContract);\r\n        callee.transferOwnership(propertyId, buyer);\r\n        seller.transfer(value);\r\n    }\r\n}\r\n\r\ncontract PropertyData {\r\n        struct Property {\r\n            address _owner;\r\n            uint256 _area;\r\n            uint256 _price;\r\n            int _pin;\r\n            string _district;\r\n            string _state;\r\n            bool _isVerified;\r\n        }\r\n\r\n        string public name;\r\n\r\n        mapping (uint => string) public names;\r\n        uint c =  0;\r\n\r\n        function setName(string memory _name) public returns(bool) {\r\n            c++;\r\n            names[c] = _name;\r\n            return true;\r\n        }\r\n\r\n        mapping (uint => Property) public property;\r\n        uint256 public count = 0;\r\n\r\n        function addProperty(address owner, uint256 area, uint256 price, int pin, string memory district, string memory _state) public\r\n        {\r\n            count++;\r\n            property[count] = Property(owner, area, price, pin, district, _state, false);\r\n        }\r\n\r\n        function verifyProperty(uint256 propertyId) public\r\n        {\r\n            property[propertyId]._isVerified = true;\r\n        }\r\n\r\n        function transferOwnership(uint256 propertyId, address owner) public\r\n        {\r\n            property[propertyId]._owner = owner;\r\n        }\r\n}",
  "sourcePath": "D:\\Projects\\PRS_Blockchain\\contracts\\PurchaseAgreement.sol",
  "compiler": {
    "name": "solc",
    "version": "0.8.13+commit.abaa5c0e.Emscripten.clang"
  },
  "schemaVersion": "3.4.7",
  "updatedAt": "2022-05-07T05:43:12.197Z",
  "networkType": "ethereum",
  "devdoc": {
    "kind": "dev",
    "methods": {},
    "version": 1
  },
  "userdoc": {
    "kind": "user",
    "methods": {},
    "version": 1
  }
}